:100000000C942A000C9447000C9447000C94470071
:100010000C9447000C9447000C9447000C94470044
:100020000C9447000C9447000C9447000C94470034
:100030000C9447000C9447000C9447000C94470024
:100040000C9447000C9447000C9447000C94470014
:100050000C94470011241FBECFE5D8E0DEBFCDBF12
:1000600010E0A0E6B0E0EAE9FBE002C005900D92E6
:10007000AE37B107D9F710E0AEE7B0E001C01D928E
:10008000A138B107E1F70E940A030C94CB050C9448
:100090000000CF93DF93D82FC62F40E00E945B0073
:1000A0008D2F6C2F41E00E94EF00DF91CF910895DA
:1000B0000E94D3010895683008F090C0843409F498
:1000C00071C0853448F4823499F1833408F04DC00E
:1000D000813409F083C00FC0823651F1833620F499
:1000E000813609F07BC007C0833609F43EC08436F0
:1000F00009F074C057C0413069F42AB381E090E040
:10010000AC0102C0440F551F6A95E2F7BA01622B99
:100110006ABB08952AB381E090E0AC0102C0440FAD
:10012000551F6A95E2F7BA01609562236ABB08958C
:10013000413069F427B381E090E0AC0102C0440F84
:10014000551F6A95E2F7BA01622B67BB089527B382
:1001500081E090E0AC0102C0440F551F6A95E2F7C0
:10016000BA016095622367BB0895413069F424B3F6
:1001700081E090E0AC0102C0440F551F6A95E2F7A0
:10018000BA01622B64BB089524B381E090E0AC0116
:1001900002C0440F551F6A95E2F7BA0160956223C9
:1001A00064BB0895413069F421B381E090E0AC0173
:1001B00002C0440F551F6A95E2F7BA01622B61BB7A
:1001C000089521B381E090E0AC0102C0440F551FB7
:1001D0006A95E2F7BA016095622361BB08956830C1
:1001E00008F090C0843409F471C0853448F4823436
:1001F00099F1833408F04DC0813409F083C00FC0F9
:10020000823651F1833620F4813609F07BC007C075
:10021000833609F43EC0843609F074C057C04130BB
:1002200069F42BB381E090E0AC0102C0440F551F8C
:100230006A95E2F7BA01622B6BBB08952BB381E09C
:1002400090E0AC0102C0440F551F6A95E2F7BA0175
:10025000609562236BBB0895413069F428B381E057
:1002600090E0AC0102C0440F551F6A95E2F7BA0155
:10027000622B68BB089528B381E090E0AC0102C016
:10028000440F551F6A95E2F7BA016095622368BB77
:100290000895413069F425B381E090E0AC0102C0DB
:1002A000440F551F6A95E2F7BA01622B65BB0895AA
:1002B00025B381E090E0AC0102C0440F551F6A9560
:1002C000E2F7BA016095622365BB0895413069F495
:1002D00022B381E090E0AC0102C0440F551F6A9543
:1002E000E2F7BA01622B62BB089522B381E090E08D
:1002F000AC0102C0440F551F6A95E2F7BA01609540
:10030000622362BB0895683008F04CC0843409F45D
:100310003DC0853440F48234F9F0833450F58134A3
:1003200009F040C00CC08236B9F0833618F481362B
:10033000C9F505C08336E9F08436A1F527C02BB393
:1003400081E090E0AC0102C0440F551F6A95E2F7CE
:10035000BA0162276BBB089528B381E090E0AC013D
:1003600002C0440F551F6A95E2F7BA01622768BBC5
:10037000089525B381E090E0AC0102C0440F551F01
:100380006A95E2F7BA01622765BB089522B381E05E
:1003900090E0AC0102C0440F551F6A95E2F7BA0124
:1003A000622762BB0895683008F03FC0843499F139
:1003B000853438F48234D9F0833418F58134B9F5B2
:1003C0000CC08236A1F0833618F4813681F505C061
:1003D0008336B9F0843659F51EC029B330E0C9011F
:1003E00002C0959587956A95E2F78170089526B3C6
:1003F00030E0C90102C0959587956A95E2F7817052
:10040000089523B330E0C90102C0959587956A9598
:10041000E2F78170089520B330E0C90102C09595DC
:1004200087956A95E2F78170089580E0089580E0ED
:1004300008958434D9F0853438F4823499F08334C3
:1004400098F48134A1F40CC0823661F0833618F43C
:10045000813669F405C0833639F0843641F406C02C
:100460006ABB089567BB089564BB089561BB089596
:100470008434D9F0853438F4823499F0833498F494
:100480008134A1F40CC0823661F0833618F48136D1
:1004900069F405C0833639F0843641F406C06BBB7D
:1004A000089568BB089565BB089562BB08958434C0
:1004B000D9F0853438F4823499F0833498F4813457
:1004C000A1F40CC0823661F0833618F4813669F4E9
:1004D00005C0833639F0843641F406C099B305C0AF
:1004E00096B303C093B301C090B3892F08958434A9
:1004F00009F1853438F48234A9F08334B8F48134B6
:10050000E1F40CC0823671F0833618F48136A9F418
:1005100005C0833659F0843681F40CC08BB38095C6
:100520008BBB089588B3809588BB089585B380956B
:1005300085BB089582B3809582BB08956295607FE4
:10054000843451F1853438F48234C1F08334E8F4D2
:10055000813441F50CC0823689F0833618F4813637
:1005600009F505C0833689F08436E1F415C08BB3F4
:100570008F708BBB8BB3682B6BBB089588B38F7068
:1005800088BB88B3682B68BB089585B38F7085BB23
:1005900085B3682B65BB089582B38F7082BB82B32D
:1005A000682B62BB08956F70843451F1853438F440
:1005B0008234C1F08334E8F4813441F50CC08236D2
:1005C00089F0833618F4813609F505C0833689F041
:1005D0008436E1F415C08BB3807F8BBB8BB3682B63
:1005E0006BBB089588B3807F88BB88B3682B68BBDA
:1005F000089585B3807F85BB85B3682B65BB08955F
:1006000082B3807F82BB82B3682B62BB08950E9455
:10061000EF00089581E00E94E20481E065E00E941D
:10062000A20580E690E00E94920582E066E00E94CA
:10063000A20588E690E00E9492058FEF94E3ACE07B
:1006400081509040A040E1F700C0000081E061E0EF
:100650000E94B00481E061E00E94A2058FE690E074
:100660000E94920581E06BE00E94A20584E790E081
:100670000E94920582E065E00E94A20589E790E071
:100680000E94920584E460E00E94490084E461E0F5
:100690000E94490084E462E00E94490084E466E02C
:1006A0000E94490084E465E041E00E945B0000E6AE
:1006B00010E00F2EF8E6EF2EF0E0FF2EF02D0F2EBB
:1006C000FFE6CF2EF0E0DF2EF02D0F2EF4E7AF2E59
:1006D000F0E0BF2EF02D0F2EF9E78F2EF0E09F2EC9
:1006E000F02DCAE084E460E00E945800882309F0FD
:1006F00040C080917F008F5F80937F0081E064E045
:100700000E94A20580917F008A3040F4805D61E004
:100710000E94600580917F008A3088F06C2F0E94D3
:10072000BF05805D61E00E94600580917F006C2FB5
:100730000E94BF05892F805D61E00E94600584E40E
:1007400060E00E9458008823D1F384E465E041E032
:100750000E94EF008FEF91EEA4E081509040A04006
:10076000E1F700C0000084E465E040E00E94EF0093
:10077000C6C084E461E00E9458008823E9F58091B6
:100780007E008F5F80937E0081E06EE00E94A20574
:1007900080917E008A3028F4805D61E00E946005CF
:1007A00011C06C2F0E94BF05805D61E00E94600552
:1007B00080917E006C2F0E94BF05892F805D61E0D3
:1007C0000E94600584E461E00E9458008823D1F310
:1007D00084E465E041E00E94EF008FEF91EEA4E039
:1007E00081509040A040E1F700C0000084E465E043
:1007F00040E00E94EF0083C084E462E00E94580061
:100800008823E9F5809180008F5F8093800082E0EB
:1008100068E00E94A205809180008A3028F4805D03
:1008200061E00E94600511C06C2F0E94BF05805DD1
:1008300061E00E946005809180006C2F0E94BF05DE
:10084000892F805D61E00E94600584E462E00E947F
:1008500058008823D1F384E465E041E00E94EF0072
:100860008FEF91EEA4E081509040A040E1F700C0EE
:10087000000084E465E040E00E94EF0040C084E4B2
:1008800066E00E9458008823D1F510927F001092F4
:100890007E001092800081E061E00E94B00481E05F
:1008A00065E00E94A205C8010E94920582E066E010
:1008B0000E94A205C7010E9492058FEF94E3ACE06D
:1008C00081509040A040E1F700C0000081E061E06D
:1008D0000E94B00481E061E00E94A205C6010E946E
:1008E000920581E06BE00E94A205C5010E9492057D
:1008F00082E065E00E94A205C4010E9492058FEF8C
:1009000091EEA4E081509040A040E1F700C00000CB
:10091000E9CE82E462E041E00E945B0082E462E0B2
:1009200040E00E94EF008FE99FE00197F1F700C0DF
:10093000000082E462E041E00E94EF008FE19EE46B
:100940000197F1F700C0000082E462E040E00E94FD
:10095000EF008FE097E20197F1F700C000000895E3
:10096000CF93DF93D82FC62F82E460E040E00E944F
:10097000EF0082E461E040E00E94EF00CC2389F0C8
:10098000C130E9F46D2F62956F7081E40E949E0280
:100990000E94890481E46D2F0E949E020E948904B6
:1009A0000EC06D2F62956F7081E40E94D3020E9489
:1009B000890481E46D2F0E94D3020E948904DF9193
:1009C000CF9108952FE738E341E021503040404077
:1009D000E1F700C00000882319F0813051F515C0FF
:1009E00081E460E041E00E945B0081E461E041E07D
:1009F0000E945B0081E462E041E00E945B0081E4D0
:100A000063E041E00E945B0014C081E464E041E0E7
:100A10000E945B0081E465E041E00E945B0081E4AC
:100A200066E041E00E945B0081E467E041E00E94F3
:100A30005B0082E461E041E00E945B0082E460E0F0
:100A400041E00E945B0082E462E041E00E945B00C2
:100A500082E461E040E00E94EF0082E061E00E94F9
:100A6000B0048FE19EE40197F1F700C0000088E236
:100A700061E00E94B0048FE097E20197F1F700C0B7
:100A800000008EE061E00E94B0048FE097E20197E1
:100A9000F1F700C0000081E061E00E94B0048FE146
:100AA0009EE40197F1F700C0000086E061E00E943B
:100AB000B0048FE097E20197F1F700C000000895BD
:100AC000CF93DF93D82FC62F82E460E041E00E94ED
:100AD000EF0082E461E040E00E94EF00CC2389F067
:100AE000C130E9F46D2F62956F7081E40E949E021F
:100AF0000E94890481E46D2F0E949E020E94890455
:100B00000EC06D2F62956F7081E40E94D3020E9427
:100B1000890481E46D2F0E94D3020E948904DF9131
:100B2000CF910895CF93DF93EC018881882339F02A
:100B3000219661E00E94600589918823D1F7DF91B9
:100B4000CF910895982F9150923020F4662311F0A0
:100B5000613128F080E861E00E94B004089581309E
:100B600031F4862F815861E00E94B00408958230EC
:100B700029F4862F815461E00E94B0040895991BE6
:100B800079E004C0991F961708F0961B881F7A9584
:0A0B9000C9F780950895F894FFCF8F
:100B9A0057454C434F4D4500452E562E4D21004E8C
:0E0BAA00313D30004E323D30004E333D3000C4
:00000001FF
